:020000040000FA
:06000000D1EF08F0120030
:0A0006000100D611000060000000A8
:0400100014000000D8
:0C001400D9CFE6FFE1CFD9FFE652C15082
:10002000DF6EF00EC1140A09C16E969096949692F6
:100030009598959A959C959E330EE66E20D8E5523C
:10004000320EE66E1CD8E552280EE66E18D8E55240
:10005000280EE66E14D8E5520C0EE66E10D8E55266
:10006000060EE66E0CD8E552010EE66E08D8E55293
:10007000DF50C16EE552E552E7CFD9FF1200D9CF6C
:10008000E6FFE1CFD9FFE652C150DF6EF00EC1149A
:100090000A09C16E849084948492FE0EDB50800B1A
:1000A000E844010BE8B0838EE8A0839E060E146E30
:1000B000FE0EDB50400B14C0E7FFE75204E0E842BD
:1000C0007F0BE706FCE1E8B0838CE8A0839CFE0E82
:1000D000DB50200BE00BE838E840E8B0838AE8A06A
:1000E000839AFE0EDB50100BE8380F0BE8B08388C4
:1000F000E8A083988482320EE66EDFEC08F0E552C9
:100100008492320EE66EDFEC08F0E552FE0EDB5014
:10011000080BE840E840E8401F0BE8B0838EE8A0F9
:10012000839EFE0EDB50040BE840E8403F0BE8B036
:10013000838CE8A0839CFE0EDB50020BE8407F0B13
:10014000E8B0838AE8A0839AFE0EDB50010BE8B08A
:100150008388E8A083988482320EE66EDFEC08F094
:10016000E55284920A0EE66EB1EC08F0E552DF50DB
:10017000C16EE552E552E7CFD9FF1200D9CFE6FFB5
:10018000E1CFD9FFE652C150DF6EF00EC1140A096B
:10019000C16E848084948492FE0EDB50800BE84410
:1001A000010BE8B0838EE8A0839E060E146EFE0E4F
:1001B000DB50400B14C0E7FFE75204E0E8427F0B3E
:1001C000E706FCE1E8B0838CE8A0839CFE0EDB50E0
:1001D000200BE00BE838E840E8B0838AE8A0839A77
:1001E000FE0EDB50100BE8380F0BE8B08388E8A058
:1001F00083988482320EE66EDFEC08F0E55284923A
:10020000320EE66EDFEC08F0E552FE0EDB50080B16
:10021000E840E840E8401F0BE8B0838EE8A0839EEA
:10022000FE0EDB50040BE840E8403F0BE8B0838C47
:10023000E8A0839CFE0EDB50020BE8407F0BE8B089
:10024000838AE8A0839AFE0EDB50010BE8B0838816
:10025000E8A083988482320EE66EDFEC08F0E55267
:1002600084920A0EE66EB1EC08F0E552DF50C16EE2
:10027000E552E552E7CFD9FF1200D9CFE6FFE1CF33
:10028000D9FFFD0EDBCFF6FFFE0EDBCFF7FF080038
:10029000F55011E0FD0EDBCFF6FFFE0EDBCFF7FFD2
:1002A0000800F550E66E6ADFE552FD0EDB2AFE0E11
:1002B00001E3DB2AE6D7E552E7CFD9FF1200D9CF19
:1002C000E6FFE1CFD9FFFD0EDB06FE0EDB50040A90
:1002D0001CE0070A13E0010A0AE0030A01E01CD04F
:1002E000FD0EDB50800FE66ECADEE55215D0FD0E26
:1002F000DB50C00FE66EC3DEE5520ED0FD0EDB50C4
:10030000900FE66EBCDEE55207D0FD0EDB50D00F3D
:10031000E66EB5DEE55200D0E552E7CFD9FF120018
:10032000D9CFE6FFE1CFD9FF070EE126100E146EFC
:10033000270E156EFD0EDBCF06F0FE0EDBCF07F0AD
:1003400014C00BF015C00CF09BEC08F0040E06C0B6
:10035000DBFFFD0EDBCF14F0FE0EDBCF15F0100E31
:100360000B6E270E0C6E14C006F015C007F09BEC48
:1003700008F002C014F003C015F0FD0E14C0DBFF3E
:10038000FE0E15C0DBFFE80E146E030E156EFD0E9B
:10039000DBCF06F0FE0EDBCF07F014C00BF015C06C
:1003A0000CF09BEC08F0030E06C0DBFFFD0EDBCF6C
:1003B00014F0FE0EDBCF15F0E80E0B6E030E0C6E84
:1003C00014C006F015C007F09BEC08F002C014F052
:1003D00003C015F0FD0E14C0DBFFFE0E15C0DBFFE1
:1003E000640E146E156AFD0EDBCF06F0FE0EDBCF39
:1003F00007F014C00BF015C00CF09BEC08F0020ED7
:1004000006C0DBFFFD0EDBCF14F0FE0EDBCF15F0D8
:10041000640E0B6E0C6A14C006F015C007F09BEC5E
:1004200008F002C014F003C015F0FD0E14C0DBFF8D
:10043000FE0E15C0DBFF0A0E146E156AFD0EDBCF33
:1004400006F0FE0EDBCF07F014C00BF015C00CF069
:100450009BEC08F0010E06C0DBFFFD0EDBCF14F0B5
:10046000FE0EDBCF15F00A0E0B6E0C6A14C006F000
:1004700015C007F09BEC08F002C014F003C015F0A3
:100480001450DF6E040EF36E050EF3CFDBFFD9CFF1
:1004900014F0DACF15F0DB500F011424E96E000ED2
:1004A0001520EA6EEF5007E1050EDB50000803E26D
:1004B000050EDB06ECD7050EDBCFE6FF040EE5529A
:1004C000D880E754E76E060EE7CFDBFFD9CF14F0F4
:1004D000DACF15F0050EDB500F011424E96E000E83
:1004E0001520EA6EEF50300FE66E48DEE552050E3D
:1004F000DB06DB50FF08EAE1060EDB50000807E2EE
:10050000200EE66E3BDEE552060EDB06F5D7070E43
:10051000E15C02E2E16AE552E16EE552E7CFD9FF24
:100520001200010EE66EABDDE55212009368946A8C
:10053000400E956E816A826A836882846BDDF1DF8A
:10054000010EE66EE66EBBDEE552E5522A0EE66E61
:10055000110EE66E92DEE552E552010EE66E020ED7
:10056000E66EADDEE552E5521C0EE66E110EE66E4D
:1005700084DEE552E552FA0EE66EB1EC08F0E55283
:1005800081BC4AD0320EE66EB1EC08F0E5528280B2
:10059000B90EE66EB1EC08F0E55282900F0EE66EF1
:1005A000B1EC08F0E5528292828400016451651139
:1005B00033E1B7DF010EE66EE66E81DEE552E5520D
:1005C0002A0EE66E110EE66E58DEE552E552010E79
:1005D000E66E020EE66E73DEE552E5521C0EE66E26
:1005E000110EE66E4ADEE552E5520001606B616B6A
:1005F000626B636B646B656B666B676B686B696B77
:100600006A6B6B6B6C6B6D6B800E6E6F400E6F6FF9
:10061000706B716B726B736B81B018D0640EE66E89
:10062000B1EC08F0E5520001646B656B010E626F7E
:10063000636B83900A0EE66EB1EC08F0E55283809E
:100640000A0EE66EB1EC08F0E552839081B22AD032
:10065000640EE66EB1EC08F0E5520001646B656B68
:10066000020E626F636B606B616B020E61AF02D052
:10067000D89003D0605D000E615914E283900A0E99
:10068000E66EB1EC08F0E5528380640EE66EB1ECE4
:1006900008F0E552010E00016025606F000E612137
:1006A000616FE3D781B42AD0640EE66EB1EC08F036
:1006B000E5520001646B656B030E626F636B606BE8
:1006C000616B030E61AF02D0D89003D0605D000E65
:1006D000615914E283900A0EE66EB1EC08F0E5521F
:1006E0008380640EE66EB1EC08F0E552010E000165
:1006F0006025606F000E6121616FE3D781B62AD05B
:10070000640EE66EB1EC08F0E5520001646B656BB7
:10071000040E626F636B606B616B040E61AF02D09D
:10072000D89003D0605D000E615914E283900A0EE8
:10073000E66EB1EC08F0E5528380640EE66EB1EC33
:1007400008F0E552010E00016025606F000E612186
:10075000616FE3D781B82AD0640EE66EB1EC08F081
:10076000E5520001646B656B050E626F636B606B35
:10077000616B050E61AF02D0D89003D0605D000EB2
:10078000615914E283900A0EE66EB1EC08F0E5526E
:100790008380640EE66EB1EC08F0E552010E0001B4
:1007A0006025606F000E6121616FE3D781BA2BD0A5
:1007B0000001646B656B640EE66EB1EC08F0E55207
:1007C000060E0001626F636B606B616B060E61AFBA
:1007D00002D0D89003D0605D000E615914E283907E
:1007E0000A0EE66EB1EC08F0E5528380640EE66E08
:1007F000B1EC08F0E552010E00016025606F000EBB
:100800006121616FE3D7060E0001621901E16351B6
:1008100001E1CDD1050E621901E1635101E16DD114
:10082000040E621901E1635101E10ED1030E621958
:1008300001E1635101E1B4D0020E621901E163519B
:100840005BE0010E621901E1635101E00BD26451DA
:10085000651151E16CC00AF06DC00BF06EC00CF078
:100860006FC00DF068C005F069C006F06AC007F0FF
:100870006BC008F01DEC07F0010A3DE10A6A0B6A43
:10088000800E0C6E3F0E0D6E68C005F069C006F05C
:100890006AC007F06BC008F087EC06F005C068F08E
:1008A00006C069F007C06AF008C06BF03ADE010EBE
:1008B000E66EE66E04DDE552E5520B0EE66E110EB5
:1008C000E66EDBDCE552E552010EE66E020EE66EE8
:1008D000F6DCE552E552FB0EE66E100EE66ECDDC60
:1008E000E552E552FA0EE66EB1EC08F0E552010E63
:1008F0000001646F656BB6D16451651150E16CC045
:100900000AF06DC00BF06EC00CF06FC00DF068C047
:1009100005F069C006F06AC007F06BC008F01DEC76
:1009200007F0010A3CE1FDDD010EE66EE66EC7DC74
:10093000E552E552EA0EE66E100EE66E9EDCE552DA
:10094000E552010EE66E020EE66EB9DCE552E552A6
:10095000FB0EE66E100EE66E90DCE552E552FA0EE6
:10096000E66EB1EC08F0E5520A6A0B6A0C6A3F0EBB
:100970000D6E68C005F069C006F06AC007F06BC074
:1009800008F087EC06F005C068F006C069F007C003
:100990006AF008C06BF0010E0001646F656B62D1F4
:1009A0006451651150E16CC00AF06DC00BF06EC06F
:1009B0000CF06FC00DF068C005F069C006F06AC0A9
:1009C00007F06BC008F01DEC07F0010A3CE10A6A71
:1009D0000B6A0C6A3F0E0D6E68C005F069C006F028
:1009E0006AC007F06BC008F087EC06F005C068F03D
:1009F00006C069F007C06AF008C06BF092DD010E16
:100A0000E66EE66E5CDCE552E552EA0EE66E100E2E
:100A1000E66E33DCE552E552010EE66E020EE66E3E
:100A20004EDCE552E552FB0EE66E100EE66E25DC5E
:100A3000E552E552FA0EE66EB1EC08F0E552010E11
:100A40000001646F656B0ED16451651155E16CC096
:100A50000AF06DC00BF06EC00CF06FC00DF068C0F6
:100A600005F069C006F06AC007F06BC008F01DEC25
:100A700007F0010A41E10A6A0B6A800E0C6E3E0E15
:100A80000D6E68C005F069C006F06AC007F06BC063
:100A900008F087EC06F005C068F006C069F007C0F2
:100AA0006AF008C06BF03DDD010EE66EE66E5FECAD
:100AB00001F0E552E552D90EE66E100EE66E3DEC01
:100AC00001F0E552E552010EE66E020EE66E5FECB5
:100AD00001F0E552E552FB0EE66E100EE66E3DECBF
:100AE00001F0E552E552FA0EE66EB1EC08F0E5527F
:100AF000010E0001646F656BB5D06451651156E15C
:100B00006CC00AF06DC00BF06EC00CF06FC00DF041
:100B100068C005F069C006F06AC007F06BC008F055
:100B20001DEC07F0010A42E1CD0E0A6ECC0E0B6EF1
:100B30000C6E3D0E0D6E68C005F069C006F06AC00F
:100B400007F06BC008F087EC06F005C068F006C03F
:100B500069F007C06AF008C06BF0E3DC010EE66ED6
:100B6000E66E5FEC01F0E552E552C80EE66E100E3F
:100B7000E66E3DEC01F0E552E552010EE66E020E26
:100B8000E66E5FEC01F0E552E552FB0EE66E100EEC
:100B9000E66E3DEC01F0E552E552FA0EE66EB1EC80
:100BA00008F0E552010E0001646F656B5BD0645183
:100BB000651157E16CC00AF06DC00BF06EC00CF00F
:100BC0006FC00DF068C005F069C006F06AC007F09C
:100BD0006BC008F01DEC07F0010A43E1CD0E0A6E70
:100BE000CC0E0B6E4C0E0C6E3D0E0D6E68C005F0FB
:100BF00069C006F06AC007F06BC008F087EC06F029
:100C000005C068F006C069F007C06AF008C06BF064
:100C100088DC010EE66EE66E5FEC01F0E552E5520F
:100C2000B70EE66E100EE66E3DEC01F0E552E552B1
:100C3000010EE66E020EE66E5FEC01F0E552E55243
:100C4000FB0EE66E100EE66E3DEC01F0E552E5524D
:100C5000FA0EE66EB1EC08F0E552010E0001646F89
:100C6000656B00D06CC00AF06DC00BF06EC00CF06C
:100C70006FC00DF068C005F069C006F06AC007F0EB
:100C80006BC008F01DEC07F0010A3EE00001665160
:100C900067113AE146DC030EE66E010EE66E5FEC8C
:100CA00001F0E552E552AC0EE66E100EE66E3DEC3C
:100CB00001F0E552E552030EE66E020EE66E5FECC1
:100CC00001F0E552E552A00EE66E100EE66E3DEC28
:100CD00001F0E552E552FA0EE66EB1EC08F0E5528D
:100CE000010E0001666F676B646B656B8280B90EE5
:100CF000E66EB1EC08F0E55282900F0EE66EB1ECB4
:0C0D000008F0E552828282943BD412007D
:040D0C000D7E0F6ADF
:100D1000D3EC07F0EBEC07F00FB67BEF07F00FA278
:100D20000AD00FAA03D00FBE7BEF07F00FA487EF06
:100D300007F084EF07F00FAA05D00FAC87EF07F09C
:100D400084EF07F00FA00AD00FA808D00FBE04D080
:100D50000FA402D090EF07F094EF07F0126A036A35
:100D60000D50085C116E10E305C013F006C000F0D2
:100D700007C001F008C010F00AC005F00BC006F073
:100D80000CC007F00F3A09D00AC013F00BC000F0F6
:100D90000CC001F00DC010F0116C0F9E0FBC0F8E37
:100DA00010C002F00FB0C3EF07F01A0E1160C3EFCE
:100DB00007F0026A086A0FA408D0056C061E071E19
:100DC000081EE86A0622072208220FAC08D0136C1E
:100DD000001E011E021EE86A002201220222046A8D
:100DE000115207E008340732063205320432112E60
:100DF000F9D705501326065000220750012208504B
:100E0000022204C012F00F9E02AE0BD0126C131E11
:100E1000001E011E021EE86A132200220122022285
:100E20000F8E02A006D0D880013200321332123267
:100E3000102A10C002F097EF07F026EC07F00FB66B
:100E4000000C0FB0000C0FA4000C010C0F6AD3ECC7
:100E500007F0EBEC07F00FB612000FAE08D00FA0B2
:100E600004D00FA802D00F8012000F9012000D5076
:100E7000085C0BE10C50075C08E10B50065C05E1D7
:100E80000A50055C02E10F801200D8A002D00F8E3C
:100E900010D008500DC008F00D6E07500CC007F0C0
:100EA0000C6E06500BC006F00B6E05500AC005F024
:100EB0000A6E0D50085C10E0FF0F09E00F900FB4B0
:100EC00003D00FAE0F8412000FAE0F9412000D2A44
:100ED000D8900C320B320A320A50055E0B50065A7B
:100EE0000C50075A07BEEAD7D890053606360736A3
:100EF000082EF8D7C8D77F0E086EFF0E076E066E55
:100F0000056E12007F0E0FBEFF0E086E02D07F0E20
:100F1000086E800E076E066A056AF3D70FAE04D01E
:100F2000800E086E076AF7D7086A076AF4D701507F
:100F3000001013101210F8E003BEF0D701BE0CD061
:100F400002500310EBE0D89012361336003601360B
:100F50000206D8A00306F2D70350D4E10228D2E05B
:100F600012AE11D07F0E121402E113A00CD0132A7E
:100F7000E86A0022012207E3D880013200321332EE
:100F8000022A0228BFE00250C9E013C005F000C0E9
:100F900006F00134076E0230086E0732089E0FBE5D
:100FA000088E81EF07F00736083602E30F840F7EC4
:100FB00006E10F80086A076A066A056A12000828B7
:100FC00003E0D88007321200D890073202E10F8286
:100FD00012000F8612000C360D3602E30F8C0F7EC6
:100FE00006E10F880D6A0C6A0B6A0A6A12000D2866
:100FF00003E0D8800C321200D8900C32EAE10F8A5C
:021000001200DC
:0E100200060EF66E000EF76E000EF86E000180
:101010000900F550796F0900F5507A6F03E179679F
:1010200001D03DD00900F550746F0900F550756F7F
:101030000900F550766F09000900F550E96E0900C6
:10104000F550EA6E090009000900F550776F0900B4
:10105000F550786F09000900F6CF7BF0F7CF7CF0F0
:10106000F8CF7DF074C0F6FF75C0F7FF76C0F8FFCB
:101070000001775302E1785307E00900F550EE6E66
:101080007707F8E27807F9D77BC0F6FF7CC0F7FF57
:101090007DC0F8FF00017907000E7A5BBFD7120010
:1010A000424F412056494147454D210056414C4F42
:1010B00052205041474F005224302C303520494EA9
:1010C00053455249444F53005224302C313020496B
:1010D0004E53455249444F53005224302C32352050
:1010E000494E53455249444F53005224302C353019
:1010F00020494E53455249444F53005045444147BF
:101100002E204155544F4D41542E005224312C3045
:101110003020494E53455249444F530056414C4F9D
:10112000523A205224342C30300042454D2056494A
:051130004E444F2100B8
:0A113600036A026A100EE76ED890FB
:1011400006360736023603360B50025C0C50035845
:1011500005E30B50025E0C50035A062AE72EF0D727
:0211600012007B
:0E116200FF0EE350166E480E01D04C0EE76EE5
:10117000E72EFED7E76AE72EFED7162EF7D7000038
:0211800012005B
:0E118200000EF36E00EE00F0080E01D8120011
:10119000EA6002D0EE6AFCD7F350E9601200EE6A12
:0211A000FCD77A
:0E11A20013EE00F023EE00F0F86A0F9C01EC53
:0E11B00008F0EAEC08F096EC02F0FBD7120013
:0211BE00FF0E22
:1011C000E350E84E1200000000D000D000D0E82E1E
:0411D000FAD7120038
:0211D400120007
:0A11D600000000000100000000000E
:0A11E0000000000080400000000045
:020000040030CA
:010001000CF2
:010002001EDF
:010003001EDE
:010005008179
:010006008178
:00000001FF
