:020000040000FA
:0600000093EF08F012006E
:020006001200E6
:0400080099EF02F07A
:04000C00010074116A
:0A0010000000600000001E00000068
:06001A00D9CFE6FFE1CFA3
:10002000D9FFE652C150DF6EF00EC1140A09C16E4D
:100030009594969495969598959A959C959E330E41
:10004000E66E20D8E552320EE66E1CD8E552280E38
:10005000E66E18D8E552280EE66E14D8E5520C0E5E
:10006000E66E10D8E552060EE66E0CD8E552010E8B
:10007000E66E08D8E552DF50C16EE552E552E7CF93
:10008000D9FF1200D9CFE6FFE1CFD9FFE652C15028
:10009000DF6EF00EC1140A09C16E839484948396B6
:1000A000FE0EDB50800BE844010BE8B0838EE8A025
:1000B000839E060E146EFE0EDB50400B14C0E7FF4D
:1000C000E75204E0E8427F0BE706FCE1E8B0838CEE
:1000D000E8A0839CFE0EDB50200BE00BE838E840E4
:1000E000E8B0838AE8A0839AFE0EDB50100BE83854
:1000F0000F0BE8B08388E8A083988386320EE66E03
:10010000AFEC08F0E5528396320EE66EAFEC08F0E5
:10011000E552FE0EDB50080BE840E840E8401F0BBC
:10012000E8B0838EE8A0839EFE0EDB50040BE8400F
:10013000E8403F0BE8B0838CE8A0839CFE0EDB50C8
:10014000020BE8407F0BE8B0838AE8A0839AFE0E9A
:10015000DB50010BE8B08388E8A083988386320ED9
:10016000E66EAFEC08F0E55283960A0EE66E73EC8D
:1001700008F0E552DF50C16EE552E552E7CFD9FFF6
:100180001200D9CFE6FFE1CFD9FFE652C150DF6EB2
:10019000F00EC1140A09C16E838484948396FE0E06
:1001A000DB50800BE844010BE8B0838EE8A0839E0F
:1001B000060E146EFE0EDB50400B14C0E7FFE75234
:1001C00004E0E8427F0BE706FCE1E8B0838CE8A09E
:1001D000839CFE0EDB50200BE00BE838E840E8B0D3
:1001E000838AE8A0839AFE0EDB50100BE8380F0BD1
:1001F000E8B08388E8A083988386320EE66EAFEC81
:1002000008F0E5528396320EE66EAFEC08F0E55248
:10021000FE0EDB50080BE840E840E8401F0BE8B05A
:10022000838EE8A0839EFE0EDB50040BE840E8407E
:100230003F0BE8B0838CE8A0839CFE0EDB50020BE2
:10024000E8407F0BE8B0838AE8A0839AFE0EDB507B
:10025000010BE8B08388E8A083988386320EE66EAF
:10026000AFEC08F0E55283960A0EE66E73EC08F0E8
:10027000E552DF50C16EE552E552E7CFD9FF1200DB
:10028000D9CFE6FFE1CFD9FFFD0EDBCFF6FFFE0EA3
:10029000DBCFF7FF0800F55011E0FD0EDBCFF6FFD6
:1002A000FE0EDBCFF7FF0800F550E66E6ADFE55281
:1002B000FD0EDB2AFE0E01E3DB2AE6D7E552E7CF8F
:1002C000D9FF1200D9CFE6FFE1CFD9FFFD0EDB0643
:1002D000FE0EDB50040A1CE0070A13E0010A0AE0E4
:1002E000030A01E01CD0FD0EDB50800FE66ECADE73
:1002F000E55215D0FD0EDB50C00FE66EC3DEE552B1
:100300000ED0FD0EDB50900FE66EBCDEE55207D03E
:10031000FD0EDB50D00FE66EB5DEE55200D0E552A3
:10032000E7CFD9FF1200D9CFE6FFE1CFD9FF070E03
:10033000E126100E146E270E156EFD0EDBCF06F0B3
:10034000FE0EDBCF07F014C00BF015C00CF05DEC17
:1003500008F0040E06C0DBFFFD0EDBCF14F0FE0E2E
:10036000DBCF15F0100E0B6E270E0C6E14C006F0CE
:1003700015C007F05DEC08F002C014F003C015F0E2
:10038000FD0E14C0DBFFFE0E15C0DBFFE80E146E81
:10039000030E156EFD0EDBCF06F0FE0EDBCF07F071
:1003A00014C00BF015C00CF05DEC08F0030E06C095
:1003B000DBFFFD0EDBCF14F0FE0EDBCF15F0E80EF9
:1003C0000B6E030E0C6E14C006F015C007F05DEC4A
:1003D00008F002C014F003C015F0FD0E14C0DBFFDE
:1003E000FE0E15C0DBFF640E146E156AFD0EDBCF2A
:1003F00006F0FE0EDBCF07F014C00BF015C00CF0BA
:100400005DEC08F0020E06C0DBFFFD0EDBCF14F042
:10041000FE0EDBCF15F0640E0B6E0C6A14C006F0F6
:1004200015C007F05DEC08F002C014F003C015F031
:10043000FD0E14C0DBFFFE0E15C0DBFF0A0E146EAE
:10044000156AFD0EDBCF06F0FE0EDBCF07F014C001
:100450000BF015C00CF05DEC08F0010E06C0DBFFE0
:10046000FD0EDBCF14F0FE0EDBCF15F00A0E0B6E87
:100470000C6A14C006F015C007F05DEC08F002C06D
:1004800014F003C015F01450DF6E040EF36E050E69
:10049000F3CFDBFFD9CF14F0DACF15F0DB500F012B
:1004A0001424E96E000E1520EA6EEF5007E1050EE8
:1004B000DB50000803E2050EDB06ECD7050EDBCFB0
:1004C000E6FF040EE552D880E754E76E060EE7CF4C
:1004D000DBFFD9CF14F0DACF15F0050EDB500F019A
:1004E0001424E96E000E1520EA6EEF50300FE66E10
:1004F00048DEE552050EDB06DB50FF08EAE1060E9A
:10050000DB50000807E2200EE66E3BDEE552060EE9
:10051000DB06F5D7070EE15C02E2E16AE552E16E27
:10052000E552E7CFD9FF1200010EE66EABDDE552D2
:100530001200DACFE4FFE2CFDAFFE9CFE4FFEACF3F
:10054000E4FFF6CFE4FFF7CFE4FFF5CFE4FFF3CF0E
:10055000E4FFF4CFE4FFFACFE4FF00EE00F0140E66
:10056000E80403E3EECFE4FFFBD700EE14F0080E3F
:10057000E80403E3EECFE4FFFBD7E652F2B426D85B
:100580009EB02ED8E55200EE1BF0080EE80403E3FF
:10059000E5CFEDFFFBD700EE13F0140EE80403E304
:1005A000E5CFEDFFFBD7E5CFFAFFE5CFF4FFE5CFD1
:1005B000F3FFE5CFF5FFE5CFF7FFE5CFF6FFE5CF9A
:1005C000EAFFE5CFE9FFE5CFDAFF1100600EE66E46
:1005D000FE0EE66E41EC08F0E552E552F294120090
:1005E000600EE66EFE0EE66E25EC08F0E552E55272
:1005F0009E9000017C2B000E7D231200D9CFE6FFD8
:10060000E1CFD9FF8284FB0EDBCF05F0FC0EDBCF00
:1006100006F0FD0EDBCF07F0FE0EDBCF08F0E1ECBD
:1006200006F00750E66EA1EC08F0E5528294146AD9
:10063000156A480E166E430E176EFB0EDBCF18F0D0
:10064000FC0EDBCF19F0FD0EDBCF1AF0FE0EDBCF78
:100650001BF018C00AF019C00BF01AC00CF01BC038
:100660000DF014C005F015C006F016C007F017C055
:1006700008F04AEC06F0E1EC06F00750E66EA1EC5B
:1006800008F0E552E552E7CFD9FF12000001640EF1
:100690007A1901E17B5109E1010E7825786F000E8E
:1006A0007921796F7A6B7B6B00D012003DDFFB0EF6
:1006B000E66E0F0EE66EE4DDE552E5520D0EE66ED7
:1006C000010EE66EFFDDE552E552300E00017825A1
:1006D000E66E57DDE5520E0EE66E010EE66EF2DDB9
:1006E000E552E552F90EE66E0F0EE66EC9DDE552F3
:1006F000E5520F0EE66E010EE66EE4DDE552E552C0
:1007000000017A517B1108E1F60EE66E0F0EE66EDF
:10071000B7DDE552E55214D0050E7A1901E17B519F
:1007200008E1F30EE66E0F0EE66EAADDE552E55225
:1007300007D07AC0E6FF7BC0E6FFF5DDE552E55263
:10074000FA0EE66E73EC08F0E55200D012000001DC
:1007500088BB0ED081A00CD0600EE66EFE0EE66E59
:1007600025EC08F0E552E552CD800001888B888D9C
:1007700088AD24D081B022D0CD90889D00013C0E60
:10078000D8807C55000E7D5514E2500E7C5D000E25
:100790007D590FE2762B000E7723600EE66EFE0E7B
:1007A000E66E25EC08F0E552E552CD800001888F19
:1007B00002D00001889B00017C6B7D6B000188AF3B
:1007C00031D081A020D0CD90889F00015A0ED880D2
:1007D0007C55000E7D5511E26E0E7C5D000E7D593C
:1007E0000CE2600EE66EFE0EE66E25EC08F0E552B9
:1007F000E552CD800001888D02D00001889B000168
:100800007C6B7D6B0FD000012C0ED8807C55010EC7
:100810007D5508E2CD900001889F889B8981000169
:100820007C6B7D6B12000F0EC16E9368946A6D969F
:100830006F86956A966E816A826A8368806A846A26
:10084000D50EE66E04EC08F0E552600EE66EFE0E84
:10085000E66E25EC08F0E552E552CD90D09EF28E82
:10086000F28C0001889B889D889F899183800DEC84
:1008700000F05ADE010EE66EE66E24DDE552E5522A
:10088000E20EE66E0F0EE66EFBDCE552E552010E5F
:10089000E66E020EE66E16DDE552E552D10EE66E0C
:1008A0000F0EE66EEDDCE552E5520A0EE66E020E24
:1008B000E66E08DDE552E552300E00016025E66E79
:1008C00060DCE5520001746B756B960E745D000E72
:1008D000755921E263C007F03BEC06F005C014F047
:1008E00006C015F007C016F008C017F014C0E6FFE8
:1008F00015C0E6FF16C0E6FF17C0E6FF7FDEE55233
:10090000E552E552E552010E00017425746F000EA8
:100910007521756FDAD783808392000189A117DF73
:10092000000189A1E0D0060E0001761901E177519E
:1009300001E1B2D0050E761901E1775101E18AD0CB
:10094000040E761901E1775163E0030E761901E197
:1009500077513CE0020E761901E1775115E0010E66
:10096000761901E1775101E0B9D060C014F0156A41
:1009700014BE15681450785D1550795904E2782B2F
:10098000000E792393DEAAD060C014F0156A14BE5D
:1009900015681450785D1550795917E2746B756BB2
:1009A000320E745D000E75590FE2010E7A257A6FD2
:1009B000000E7B217B6F6ADE010E00017425746FCF
:1009C000000E7521756FECD771DE88D060C014F011
:1009D000156A14BE15681450785D1550795917E2E0
:1009E000746B756B320E745D000E75590FE2010E5B
:1009F0007A257A6F000E7B217B6F48DE010E0001A5
:100A00007425746F000E7521756FECD74FDE66D0BC
:100A100060C014F0156A14BE15681450785D155046
:100A2000795917E2746B756B190E745D000E755968
:100A30000FE2010E7A257A6F000E7B217B6F26DE96
:100A4000010E00017425746F000E7521756FECD7CF
:100A50002DDE44D060C014F0156A14BE1568145021
:100A6000785D1550795917E2746B756B0A0E745DD9
:100A7000000E75590FE2010E7A257A6F000E7B2168
:100A80007B6F04DE010E00017425746F000E75216A
:100A9000756FECD70BDE22D060C014F0156A14BE5F
:100AA00015681450785D1550795917E2746B756BA1
:100AB000050E745D000E75590FE2010E7A257A6FEE
:100AC000000E7B217B6FE2DD010E00017425746F47
:100AD000000E7521756FECD7E9DD00D0000189911A
:100AE0000001766B776B60C014F0156A14BE156850
:100AF00000011450785D1550795901E2B8D014DD29
:100B0000050EE66E010EE66E62EC01F0E552E5526E
:100B1000C60EE66E0F0EE66E40EC01F0E552E552B1
:100B2000050EE66E020EE66E62EC01F0E552E5524D
:100B3000BA0EE66E0F0EE66E40EC01F0E552E5529D
:100B4000FA0EE66E73EC08F0E552838283900001A2
:100B5000010E6F6F6F0501E08AD06F6B786B796B58
:100B60007A6B7B6B746B756BFA0E745D000E755946
:100B700021E267C007F03BEC06F005C014F006C0A8
:100B800015F007C016F008C017F014C0E6FF15C036
:100B9000E6FF16C0E6FF17C0E6FF30DDE552E5527E
:100BA000E552E552010E00017425746F000E7521A7
:100BB000756FDAD781BA5BD0746B756B320E745D6A
:100BC000000E755921E263C007F03BEC06F005C04A
:100BD00014F006C015F007C016F008C017F014C0D6
:100BE000E6FF15C0E6FF16C0E6FF17C0E6FF06DD0C
:100BF000E552E552E552E552010E00017425746F8D
:100C0000000E7521756FDAD7838083920DEC00F0AA
:100C10008BDC010EE66EE66E62EC01F0E552E55209
:100C2000E20EE66E0F0EE66E40EC01F0E552E55284
:100C3000010EE66E020EE66E62EC01F0E552E55240
:100C4000D10EE66E0F0EE66E40EC01F0E552E55275
:100C50000A0EE66E020EE66E62EC01F0E552E55217
:100C6000300E00016025E66EC1EC00F0E55255D66D
:020C7000120070
:0E0C72000F9E05D00F9E07AE02D0076C0F8EAE
:100C800007C001F0006A136A126A860E026E036AD8
:100C900024EF07F00D7E0F6A60EC07F078EC07F0A8
:100CA0000FB608EF07F00FA20AD00FAA03D00FBEAD
:100CB00008EF07F00FA414EF07F011EF07F00FAAE9
:100CC00005D00FAC14EF07F011EF07F00FA00AD01A
:100CD0000FA808D00FBE04D00FA402D01DEF07F05C
:100CE00021EF07F0126A036A0D50085C116E10E3E1
:100CF00005C013F006C000F007C001F008C010F0F6
:100D00000AC005F00BC006F00CC007F00F3A09D07E
:100D10000AC013F00BC000F00CC001F00DC010F0C1
:100D2000116C0F9E0FBC0F8E10C002F00FB050EF71
:100D300007F01A0E116050EF07F0026A086A0FA45C
:100D400008D0056C061E071E081EE86A0622072248
:100D500008220FAC08D0136C001E011E021EE86AA8
:100D6000002201220222046A115207E008340732ED
:100D7000063205320432112EF9D7055013260650DB
:100D80000022075001220850022204C012F00F9ED8
:100D900002AE0BD0126C131E001E011E021EE86A6A
:100DA00013220022012202220F8E02A006D0D88038
:100DB0000132003213321232102A10C002F024EF36
:100DC00007F00F6A60EC07F00FB6EBEF06F00FA22A
:100DD0000AD00FB403D07F0E076E19D0800E076EB5
:100DE00016D0076A14D00FB0FCD7870E0860F1D771
:100DF0007E0E0864F6D7860E085C04E0D8900732B1
:100E0000082AF9D70FA403D0076C07AEEAD712005F
:100E10007F0E086EFF0E076E066E056E12007F0EC7
:100E20000FBEFF0E086E02D07F0E086E800E076E9A
:100E3000066A056AF3D70FAE04D0800E086E076A03
:100E4000F7D7086A076AF4D7015000101310121080
:100E5000F8E003BEF0D701BE0CD002500310EBE067
:100E6000D89012361336003601360206D8A0030693
:100E7000F2D70350D4E10228D2E012AE11D07F0E97
:100E8000121402E113A00CD0132AE86A00220122F6
:100E900007E3D880013200321332022A0228BFE071
:100EA0000250C9E013C005F000C006F00134076E1F
:100EB0000230086E0732089E0FBE088E0EEF07F054
:100EC0000736083602E30F840F7E06E10F80086ABA
:100ED000076A066A056A1200082803E0D88007320C
:100EE0001200D890073202E10F8212000F86120022
:100EF0000C360D3602E30F8C0F7E06E10F880D6A6B
:100F00000C6A0B6A0A6A12000D2803E0D8800C32C2
:0C0F10001200D8900C32EAE10F8A1200A7
:040F1C000C0EF66E53
:100F2000000EF76E000EF86E00010900F550836F99
:100F30000900F550846F03E1836701D03DD00900BB
:100F4000F5507E6F0900F5507F6F0900F550806FF6
:100F500009000900F550E96E0900F550EA6E090034
:100F600009000900F550816F0900F550826F0900F2
:100F70000900F6CF85F0F7CF86F0F8CF87F07EC076
:100F8000F6FF7FC0F7FF80C0F8FF0001815302E148
:100F9000825307E00900F550EE6E8107F8E2820700
:100FA000F9D785C0F6FF86C0F7FF87C0F8FF0001BC
:0A0FB0008307000E845BBFD7120018
:060FBA00424F41205649A0
:100FC0004147454D210056414C4F52205041474F1B
:100FD0000056414C4F523A205224202C30302020D1
:100FE000200042454D2056494E444F2120202020CC
:100FF0002020003035003030002C00494E5345523F
:0810000049444F532052240023
:08100800D9CFE6FFDACFE6FFC5
:10101000E1CFD9FFE2CFDAFFFD0EDB507E0BCD6EC4
:10102000FD0EDBAC02D0CD8E01D0CD9ECF6ACE6A54
:101030009E90DBAE02D09D8001D09D90CD80E55288
:0A104000E5CFDAFFE7CFD9FF120079
:06104A00D9CFE6FFDACF6A
:10105000E6FFE1CFD9FFE2CFDAFFE652E652FC0E1F
:10106000DBCFDEFFDBCFDDFF010EDB50CF6EDF50CD
:10107000CE6EE552E552E552E5CFDAFFE7CFD9FF74
:0210800012005C
:0E108200D9CFE6FFDACFE6FFE1CFD9FFE2CF0C
:10109000DAFFE652E652FC0EDBCFDEFFDBCFDDFFF0
:1010A000010EDB50D76EDF50D66EE552E552E552A9
:0A10B000E5CFDAFFE7CFD9FF120009
:0610BA00036A026A100E39
:1010C000E76ED89006360736023603360B50025CC0
:1010D0000C50035805E30B50025E0C50035A062ACD
:0610E000E72EF0D712001C
:0A10E600FF0EE3501C6E480E01D00F
:1010F0004C0EE76EE72EFED7E76AE72EFED71C2ED2
:06110000F7D70000120009
:0A110600000EF36E00EE00F0080E7C
:1011100001D81200EA6002D0EE6AFCD7F350E96011
:061120001200EE6AFCD78C
:0A11260013EE00F023EE00F0F86A6B
:101130000F9C8EEC07F003EC00F013EC04F0FBD7EF
:0211400012009B
:0E114200FF0EE3501C6E1B0E00D001D0200EDD
:0E115000E76EE72EFED71C2EFAD700D0120055
:02115E00FF0E82
:10116000E350E84E1200000000D000D000D0E82E7E
:04117000FAD7120098
:0C117400010A0B0D0F1012140000000007
:101180000000B400000000000000000000000000AB
:0211900000005D
:020000040030CA
:010001000CF2
:010002001EDF
:010003001EDE
:010005008179
:010006008178
:00000001FF
